:020000040000FA
:1000000020080020E5000000FF000000A916000005
:1000100000000000000000000000000000000000E0
:1000200000000000000000000000000003010000CC
:10003000000000000000000005010000A51D0000F8
:10004000711A0000791A0000811A0000891A000054
:10005000D30C0000912200004D2400005524000024
:100060000B19000013190000B31A0000BB1A00009E
:10007000E9160000F116000079220000812200003C
:10008000892200000319000099220000A12200002B
:10009000A9220000611A0000C12C0000AB1A000068
:1000A000AF030000691A0000B12C0000B92C000059
:1000B0001B190000F916000085110000690C0000F2
:1000C0000348854600F05AF900480047A1030000A4
:1000D0002008002080F30888704730BF72B6704750
:1000E00062B6704709480A4A002100A1814200D93E
:1000F0000244084802600848804708480047FEE775
:10010000FEE7FEE7FEE7FEE7FEE700000000002056
:100110000000000008ED00E039220000C1000000EE
:1001200030B50B46014600202022012409E00D468F
:10013000D5409D4205D31D469540491B2546954017
:1001400040191546521E002DF1DC30BD03460B430D
:100150009B0703D009E008C9121F08C0042AFAD27D
:1001600003E00B780370401C491C521EF9D2704703
:10017000D2B201E00270401C491EFBD2704700223F
:10018000F6E710B513460A4604461946FFF7F0FF96
:10019000204610BDF8B502464A40D40F42004B003D
:1001A00052085B089A4202D20246084611464A00AB
:1001B00023D0C30D4A00DDB2120EAD1A202D35DA60
:1001C00049020126490AF6058A19002C00D052423C
:1001D00020214F1B1146B9402A411018C20D9A42E6
:1001E00021D0002C17D0012D08DCDA05801AD20F9F
:1001F0008019D207DBB200F087F8F8BDDA05801A63
:10020000012340001B06C01880185A428018CA0FEC
:100210001043490007E04908C2071143DA05801A74
:1002200080194008801800F067F8F8BD61000122CD
:10023000511A001BF7E70122D2075140AAE7012219
:10024000D2075040A6E770B502464A40D50F40009D
:100250004A00ED0740085208002814D0002A12D0A6
:10026000C40DD30D41020120C0055202490A520AB1
:10027000E41A091812187D34914201D3641C00E07D
:100280004900002C01DA002070BD0023914201D307
:10029000891A0343400849000028F7D100290AD0F1
:1002A000914202D10121C90705E0914201D2012109
:1002B00001E00121C943E005C018401900F01CF815
:1002C00070BD10B500229623114600F01DF810BD38
:1002D000410040020122400AD205090E80187F2900
:1002E00001DA00207047962903DC9622511AC84093
:1002F0007047963988407047002904DA401C49004D
:1003000001D140084000704770B40024050C05D1AD
:100310001024000402D1002921D01124050E01D19E
:1003200000020834050F01D10001241D850F01D101
:100330008000A41C002801DB4000641C002908D0B8
:1003400020252E1B0D46F540A14000D00121294358
:10035000084301061B1B000ADB1D02D5002070BCF0
:100360007047DB05181880180029F8DA401C49008E
:10037000F5D170BC4008400070470000064C0125D4
:10038000064E05E0E36807CC2B430C3C984710343D
:10039000B442F7D3FFF798FE98300000B830000061
:1003A00010B501F049FF02F0A5FD002010BD10B509
:1003B000C046C04610BD000000B507480079FA28C5
:1003C00008DB00200449087104480078002801D0A7
:1003D00000F07EFE00BD0000960400205A020020BE
:1003E000F0B587B0064600200590049003900025E4
:1003F0000290002E05D1FE4C2046B43000780490C7
:1004000004E0FC4C2046B43000780490E0790830D9
:10041000049988427EDCE07900287BD0A0794D28C1
:1004200079D1E0790830C0B204900498801E81B27E
:10043000F14B0022204601F07FF803900498401E03
:10044000215C03980007000F8142E9D10498801EC7
:10045000215CF0220398104000118142E0D1E07944
:10046000001FC5B2002006900CE06846007E4019CF
:10047000215C6846027EE14881546846007E401C4B
:10048000C1B206916846007E0A28EEDB2078DC497E
:100490000978884205D101200290A17AD948417398
:1004A00001E000200290002E08D10021D148C23086
:1004B000C1720120CF49D431487006E00020CD49F7
:1004C000C23188720220123148700021CB48401F8F
:1004D000C170012180388177207A082806D014283D
:1004E0006FD030286ED031286DD1BEE1C548417B38
:1004F00002980930205C81427ED10521C1480173F8
:100500000421BE4885384177F0218177042280306C
:10051000C07801E0E4E2D1E2411CCBB2B749491F07
:100520000190CB7061390A54012208466130C078CD
:10053000411CCBB2B149491F0190CB7061390A54BB
:10054000B048007B2530C2B208466130C078411CFB
:10055000CBB2AA49491F0190CB7061390A541222CB
:1005600008466130C078411CCBB2A449491F0190B4
:10057000CB7061390A54FF2208466130C078411CB3
:10058000CBB29E49491F0190CB7061390A5408468D
:100590006130C078411CCBB29849491F0190CB70A3
:1005A00061390A54012208466130C078411CCBB23F
:1005B0009249491F0190CB7061390A54002006907E
:1005C00013E0E6E0F9E061E200228C48401FC078C9
:1005D000411CCBB28949491F0190CB7061390A5443
:1005E0006846007E401CC1B206916846007E042821
:1005F000EADB0C22814800E0CAE0401FC078411CC1
:10060000CBB27E49491F0190CB7061390A5400205A
:10061000069011E07B48427B7848401FC078411C1F
:10062000CBB27649491F0190CB7061390A546846B4
:10063000007E401CC1B206916846007E0C28E9DBB2
:1006400005226E48401FC078411CCBB26B49491F40
:100650000190CB7061390A540020069013E068467F
:10066000007E69A10A5C6548401FC078411CCBB27E
:100670006249491F0190CB7061390A546846007E77
:10068000401CC1B206916846007E0528E7DBFA22CD
:100690005A48401FC078411CCBB25849491F0190AD
:1006A000CB7061390A54002208466130C078411C81
:1006B000CBB25249491F0190CB7061390A54FA22DA
:1006C00008466130C078411CCBB24C49491F0190AB
:1006D000CB7061390A5408466130C078411CCBB2F6
:1006E0004649491F0190CB7061390A5405220846DA
:1006F0006130C078411CCBB24049491F0190CB709A
:1007000061390A540020069013E06846007E3EA13D
:100710000A5C3A48401FC078411CCBB23749491F98
:100720000190CB7061390A546846007E401CC1B20A
:1007300006916846007E0528E7DB3248027B2F4899
:10074000401FC078411CCBB22C49491F0190CB708F
:1007500061390A540020069014E06846017E294859
:10076000801C425C2548401FC078411CCBB2234905
:10077000491F0190CB7061390A546846007E401CC5
:10078000C1B206916846017E1E48007B8142E4DBCF
:100790007DE11C48417B02980930205C81420BD1ED
:1007A00004221648401FC078411CCBB21349491F90
:1007B0000190CB7061390A5469E1217A0F4885387C
:1007C000417702980A30C5B2625D0C48401FC0787C
:1007D000411CCBB20949491F0190CB7061390A54C1
:1007E000012208466130C078411CCBB203490FE0BA
:1007F000A6010020D4030020962F0000AD050020A4
:100800008F2F0000F10500207764312E32000000A8
:10081000491F0190CB7061390A540020B14908701A
:10082000A07A002809D10120AF4948700020AF49C3
:1008300088710021AD48C17111E0A07A01280ED065
:10084000A07A03280BD10020A64908700120A649F0
:1008500048700020A54988710021A448C171A448AE
:100860000078401CA249087011E1002000F064FFEC
:1008700001209E49891C08740020891E887000216F
:100880009A48C170217A92304177012180300171FC
:1008900002980A30C5B22846691CCDB2205C934943
:1008A0001231486000200A469060D0600846836894
:1008B000C06829466A1CD5B2615C002259185041B3
:1008C0000A0E000210430902884A12329160D06079
:1008D00010468368C06829466A1CD5B2615C002254
:1008E000591850410A0E0002104309027F4A123281
:1008F0009160D06010468368C06829466A1CD5B2F2
:10090000615C002259185041784A12329160D060DF
:1009100010460269436901468868C968101A8B410C
:1009200004D30022714812300261426100206F49F5
:1009300012318861084682692846691CCDB2205C64
:1009400010180002694912318861084682692946F7
:10095000681CC5B2605C1018644912318861084691
:10096000806980282DD808468069C1B25F489230DE
:100970000177002006900DE06846007E4019215C5A
:100980006846027E59482E3081546846007E401CDD
:10099000C1B206916846017E54489230007F814280
:1009A000EADB524992310A7F0B46803B9868DB684C
:1009B000643900F0EDFB002806D100214D4801719B
:1009C00002E000214B480171484812304068C2B231
:1009D0004848C078411CCBB246490190CB70613980
:1009E0000A5408469F388168C0680204080C104306
:1009F000C2B24048C078411CCBB23E490190CB7096
:100A000061390A5408469F388168C0680206080A9E
:100A10001043C2B23748C078411CCBB2354901906F
:100A2000CB7061390A549F398868C968C2B23148AD
:100A3000C078411CCBB22F490190CB7061390A5468
:100A400008469F3880690004020E2A48C078411C7D
:100A5000CBB228490190CB7061390A5408469F38BF
:100A60008069C2B22348C078411CCBB221490190B1
:100A7000CB7061390A541F480279C078411CCBB24F
:100A80001C490190CB7061390A5400E000BF00BFDF
:100A90001848C07800281FD0144812304078012828
:100AA0000DD114488038807F00901248C378803878
:100AB000417F02461F32002002F042F80CE00D4850
:100AC0008038807F00900B48C3788038417F024691
:100AD0001F32012002F034F8002E01D100F0F8FAA4
:100AE00007B0F0BD0500002038000020960400206B
:100AF0002A000020A805002010B50B21012001F0DC
:100B00004FFD10BD30B5024600201402034D63199D
:100B100001248C40E4435C6130BD0000000C0040C7
:100B200070B5024600201502034EAB191C6925461C
:100B3000CD40E807C00F70BD000C004030B5024644
:100B400000201402044D63191C68240C24048DB287
:100B50002C431C6030BD0000000C004030B5024644
:100B600000201402044D63195C68240C24048DB227
:100B70002C435C6030BD0000000C004010B5014605
:100B800000200B02034C1A19D3685B085B005B1C46
:100B9000D36010BD000C004010B5014600200B02D0
:100BA000034C1A19D3685B085B00D36010BD0000CA
:100BB000000C004010B5014600200B02034C1A192E
:100BC000D3682415A3431B19D36010BD000C00404B
:100BD00070B503460A4600201C02224D6119CC68FC
:100BE000AD00AC4315782D030326360335402C4366
:100BF000CC60CC6801256D02AC4355786D020126AE
:100C0000760235402C43CC60CC687510AC439578A7
:100C10002D02761035402C43CC60CC687025AC4357
:100C2000D5782D01702635402C43CC60CC68082542
:100C3000AC431579ED00082635402C43CC60CC68D8
:100C40000425AC435579AD00042635402C43CC60D7
:100C5000CC680225AC4395796D00022635402C43C3
:100C6000CC6070BD000C004010B5C046C04610BD41
:100C70001CB501200F49087001211C2001F0B2FAB7
:100C8000012168460170417000218170C1700171BD
:100C9000012141716A460B21402000F0A5FC02228F
:100CA0000B21402000F076FC01220021104600F0CC
:100CB00029FA1CBD2B00002010B500240B21402078
:100CC00000F07AFC002801D0012400E00024204636
:100CD00010BD10B5C046C04610BD00B5034603E0C8
:100CE0004B20800100F005F818465B1E0028F7D164
:100CF00000BD00BF0146401E0029FBD1704710B562
:100D0000044600F00CF8012C04D10521402000F02D
:100D1000BDFC03E00521402000F02EFC10BD1CB5F9
:100D200001211C2001F05EFA0021684601708170EB
:100D30000121C17041700021017141716A46052194
:100D4000402000F051FC1CBD044982008958072254
:100D500012049143014A8300D1507047141002409D
:100D60000449820089584A00520802498300CA5047
:100D70007047000010100240034800680121C907B5
:100D8000084301490860704700100240044982008E
:100D900089580122D2071143014A8300D15070477C
:100DA00010100240014604488A00805807221204AD
:100DB0001040000C704700001410024010B50246AD
:100DC000002901D1042010BD0023224894000351C2
:100DD0008B6808681843CB6818430B6918434B6944
:100DE00018438B691843CB69184328235B5C18436D
:100DF000184B94001851181F9300C058164B1840F8
:100E0000144B1B1F9400185118469300C358C888F0
:100E1000401E8C88641E240420433024645CE40556
:100E2000204303430B48001F940003510948143822
:100E30000068CB6A1843074B143B18600548001D37
:100E400094000B6A0351001D94004B6A035100206B
:100E5000B9E7000014100240000030E010B5012195
:100E60001F2001F0BFF900F05FFB80020C49086011
:100E70000846006801218902401A0A4908600846AC
:100E800000680949086000BF01210C2000F0F8F952
:100E90000028F9D1012005490870002010BD00008C
:100EA000100000200C000020140000201A00002078
:100EB000F0B585B00026592101910027002100914D
:100EC0002A4D2B4804680321009169460879C10F17
:100ED000091849104900411A06D068460079401C9B
:100EE000C1B201910421009100206946087315E008
:100EF00021880291A41C6846008901126846027B81
:100F0000501CC3B268460373A9540089C1B2684635
:100F1000027B501CC3B268460373A9546846017B28
:100F200000798142E4DB684602790078101A81B2C8
:100F3000104B00220D4800F0FFFA0C494031887533
:100F40000846C17D807D0011814208D10748573095
:100F500041781738807D0007000F814203D0592166
:100F60000248FFF70CF9304605B0F0BDC00500207F
:100F700014000020962F000070B586B00020049069
:100F8000002659210291002101914C480078002847
:100F900001D1FFF763FF4A480068002801D106B07D
:100FA00070BD032001906946087AC10F09184910E5
:100FB0004900411A06D06846007A401CC1B202912D
:100FC000042101910020694608750DE06846007D06
:100FD0003C49095C6846007D3B4A11546846007DE7
:100FE000401CC1B2684601756846007D0D28EDDBE6
:100FF0006846007A344948736846027A0079101AC4
:1010000081B2324B0022304800F096FA2E4940312E
:1010100088750846807D01112B484030C175807D60
:101020000107090F284857304170274C24480068B1
:10103000049000BF01210C2000F022F90028F9D112
:10104000049800F091F90546002D01D00020A6E794
:1010500000206946087529E00498C007C00F0028E1
:1010600002D00498401C04902178641C03916846C7
:1010700080890006010C03912178641C68468089F0
:10108000081881B2039168468189049800F0EEF94E
:101090000546002D01D0002081E70498801C0490B3
:1010A0006846007D801CC1B2684601756846017DB6
:1010B000007A8142D0DB304671E700001A00002040
:1010C00014000020742F0000C0050020962F00009F
:1010D00008B50020009009E0002168460278084821
:1010E000815468460078401CC1B20091684600787F
:1010F000B428F1DB00210248B430017008BD0000C3
:10110000A601002070B504460E461546204600286C
:1011100005DBC206D20E01219140184A116000BFC2
:101120003146204601F044FE012D0AD12046002818
:1011300005DBC206D20E01219140114A116000BFA9
:101140001BE02046002816DBC206D20E012191408A
:101150000B4A8032116000BF00BF00BFBFF34F8F4A
:1011600000BF00BF00BF00BF00BF00BFBFF36F8F55
:1011700000BF00BF00BF00BF00BF70BD80E200E045
:1011800000E100E010B5C046C046C046C04610BDF4
:10119000F0B585B004460F46154600200290019038
:1011A000009000260126002E65D0009007E00098F0
:1011B000411CC9B20091642801DB002605E0012131
:1011C0000C2000F05DF80028F1D100BF012E52D1B3
:1011D0002A48006805210903401AA04202D30846A4
:1011E000241800E00026012E45D1E007C00F00289A
:1011F00000D0641C2846E90F091849104900691AF3
:1012000001D0681CC5B2E005C00D00280FD10090C8
:1012100007E00098411CC9B20091642801DB002658
:1012200004E0204600F0A0F80028F2D100BF012E13
:1012300021D1002003901AE0002002900399481C5D
:101240000390795C0298081802900399481C039057
:10125000785C0102029808180290029881B2204638
:1012600000F004F9002801D0002603E0A41C039834
:10127000A842E1D300BF304605B0F0BD1000002009
:10128000F0B58BB005460E460024FF200A900020E2
:101290000990202101A8FEF772FF284F012D0ED0E2
:1012A000022D0CD0042D0AD0062D08D0082D06D012
:1012B0000C2D04D00420099009980BB0F0BD1F48F4
:1012C000006A012149028843710201225202114041
:1012D00008431A490862002407E0A000184908588A
:1012E0006843A10001AA5050641C082CF5D30C2DB2
:1012F00001D1FF20029000241CE0FF200A9011E0A1
:101300000A98411E0A9100280AD00E480B49C8626B
:101310000D48C862A00001A90858A100785001E05A
:101320000720CAE7A0003858A10001AA51588842F6
:10133000E6D1641C082CE0D30998BEE70000024007
:10134000342F00005A5A0000A5A5000003480449A4
:10135000C8620448C8620020086370475A5A0000F7
:1013600000000240A5A5000008B502460023FF20AA
:1013700000902548824202D90423184608BDFF2068
:10138000009006E00098411E0091002801D109203C
:10139000F4E71E48006AC006C00F0028F2D100F032
:1013A0003BF8FF20009012E00098411E00910028B9
:1013B0000BD017481549C8621648C8620846006A2B
:1013C00080088000801C086201E00920D6E70F48F1
:1013D000006A8007800F0228E6D100201070FF20ED
:1013E000009006E00098411E0091002801D10920DC
:1013F000C4E70648006AC006C00F0028F2D1FFF714
:10140000A5FF1846BAE70000FFFF000000000240F9
:101410005A5A0000A5A5000004480549C8620548BD
:10142000C8620020C0430863704700005A5A000099
:1014300000000240A5A5000010B501460020084AA2
:10144000084BDA62084ADA621A46126A0C239A4397
:101450008B000C2423401A43024B1A6210BD00007B
:101460005A5A000000000240A5A5000018B5024627
:101470000B460024FF2000902448824202D9042415
:10148000204618BDFF20009006E00098411E009104
:10149000002801D10920F4E71D48006AC006C00FEA
:1014A0000028F2D1FF20009012E00098411E009128
:1014B00000280BD017481649C8621748C86208466A
:1014C000006A80088000401C086201E00920D8E71B
:1014D0000F48006A8007800F0128E6D1FFF79CFFC4
:1014E0001380FF20009006E00098411E0091002824
:1014F00001D10920C5E70648006AC006C00F0028D0
:10150000F2D1FFF723FF2046BBE70000FFFF0000FA
:10151000000002405A5A0000A5A5000002461068CB
:10152000C840C007C00F704708B500210091402196
:1015300000916846008808BD38B50446009208E06E
:1015400020786D462D786840185C0090481E81B266
:10155000641C0029F4DC6846007838BD70B5044688
:101560000D46044960180022294600F0AAFA00201E
:1015700070BD0000100E024070B504460D460449CF
:1015800060180122294600F09CFA002070BD00007E
:10159000140D0240F8B504460E4615460548A9004C
:1015A0004018071901223146384600F08AFA002017
:1015B000F8BD0000300D024070B504460D460349E9
:1015C00060182946FFF7AAFF70BD0000040D024015
:1015D00070B504460D46034960182946FFF79EFF83
:1015E00070BD0000000E024070B504460E46154660
:1015F0001E4960180022314600F063FA00201C49A1
:101600006118B20088502A7818490C3960183146A0
:1016100000F057FA6A78154910316018314600F029
:1016200050FAAA78114914316018314600F049FA8D
:10163000EA780E4918316018314600F042FA2A79EA
:101640000A4920316018314600F03BFA09488068A9
:101650000121C90388436979C9030122D2031140DA
:10166000084304498860002070BD00000C0D024052
:10167000000C0240000F024010B503460248181843
:101680008C000251002010BD000C024070B50446D1
:101690000D46044960180122294600F012FA002084
:1016A00070BD0000100D024008B50020009000BF82
:1016B00000BF00BF00BF00BFBFF34F8F00BF00BF20
:1016C00000BF07480749C86000BF00BF00BFBFF3A5
:1016D0004F8F00BF00BF00BF00BF00BFFDE700008D
:1016E0000400FA0500ED00E010B5C046C04610BD8C
:1016F00010B5C046C04610BD10B5C046C04610BDAE
:1017000010B50446032C00DB02240A48005D0028C3
:1017100007D10121204600F0B1F801200549085504
:1017200006E00021204600F0A9F8002001490855F4
:1017300010BD00002100002010B504463848007894
:10174000401CC0B236490870082801DB0020087030
:1017500033480078002808D10021084600F08EF8B0
:101760000021012000F08AF859E02D480078012876
:1017700008D10121002000F081F80021012000F0B3
:101780007DF84CE026480078022808D1012100208D
:1017900000F074F80121084600F070F83FE020489E
:1017A0000078032808D10021084600F067F80121DD
:1017B000084600F063F832E019480078042808D1A0
:1017C0000021084600F05AF80021012000F056F8E8
:1017D00025E013480078052808D10021084600F0CC
:1017E0004DF80121084600F049F818E00C4800784F
:1017F000062808D10121002000F040F80121084608
:1018000000F03CF80BE006480078072807D10121DA
:10181000002000F033F80021012000F02FF810BD67
:10182000240000201CB514480078002822D1012093
:101830001149087001211C2000F0D4FC00216846E9
:101840000170012181700021C170417001714171ED
:101850006A4607214020FFF7C7FE07214020FFF717
:101860008BFE6A4606214020FFF7BEFE062140207F
:10187000FFF782FE1CBD00002000002070B5054669
:101880000C46FFF7CFFF022D22D004DC002D07D03D
:10189000012D33D110E0032D1BD0FF2D2ED119E0E7
:1018A000012C04D107214020FFF7F0FE03E00721BF
:1018B0004020FFF761FE22E0012C04D106214020E8
:1018C000FFF7E4FE03E006214020FFF755FE16E097
:1018D00000BF00BF012C08D107214020FFF7D6FE32
:1018E00006214020FFF7D2FE07E007214020FFF746
:1018F00043FE06214020FFF73FFE00E000BF00BF8F
:1019000070BD10B500F056F810BD10B5C046C04609
:1019100010BD10B5C046C04610BD10B5C046C0468B
:1019200010BD1CB5044600F0FFF8FEF7D9FB0020FF
:10193000FFF7E5F9FFF79CF90121684601700021E6
:1019400081700121C17000214170017141716A46AD
:1019500007214020FFF748FE07214020FFF70CFE3B
:101960006A4606214020FFF73FFE06214020FFF790
:1019700003FE012168460170002141708170012140
:10198000C17000210171012141716A46032140208B
:10199000FFF72AFE03214020FFF7EEFDF02000F0C4
:1019A000FFFE012C04D0022C02D1002000F014F81C
:1019B0001CBD000010B5074800F029F8012808D127
:1019C000044800F01BF8FFF777F9002801D000F079
:1019D00027F810BD000F0040074909690422114390
:1019E000054A116111460969012282401143024AE8
:1019F000116130BF7047000000ED00E010B50446F3
:101A0000002211462046143000F05BF810BD10B5DE
:101A10000446002120461030FFF780FD10BD000075
:101A20000020002817D100BF00BF00BF00BF00BFCB
:101A3000BFF34F8F00BF00BF00BF0749074AD16007
:101A400000BF00BF00BFBFF34F8F00BF00BF00BF8C
:101A500000BF00BFFDE770470400FA0500ED00E09D
:101A600010B5C046C04610BD10B5C046C04610BD3A
:101A700010B5C046C04610BD10B500F009F810BD45
:101A800010B500F011F810BD10B5C046C04610BD2D
:101A900010B50B214020FFF79BFD012803D10B213E
:101AA0004020FFF75BFD10BD704710B5C046C04633
:101AB00010BD10B5C046C04610BD10B5C046C046EA
:101AC00010BD10B5012A05D1036801248C402343C1
:101AD000036004E0036801248C40A343036010BD4D
:101AE00038B5002501211F2000F07CFB0421684649
:101AF00001F0A9F901242046FFF79EFC0021684669
:101B0000017004214170032181700C21C17000F02B
:101B1000CDFA072000F054FB0121042000F046F923
:101B2000042000F06BFB38BD0EB50020FFF734F841
:101B30000021084600F056FB0021012000F052FB76
:101B40000021022000F04EFB0021032000F04AFBA0
:101B50000021042000F046FB0021052000F042FB9C
:101B60000021062000F03EFB0021072000F03AFB98
:101B70000021082000F036FB0021092000F032FB94
:101B800000210A2000F02EFB00210B2000F02AFB90
:101B900000210F2000F026FB0021102000F022FB86
:101BA0000021182000F01EFB00211C2000F01AFB71
:101BB00000211D2000F016FB01211C2000F012FB6B
:101BC00001216846017081700021C17001214170BE
:101BD00000210171417102910AE06846017A6A466A
:101BE0000020FFF701FD6846007A401CC1B2029157
:101BF0006846007A1028F0DB002002900AE0684670
:101C0000017A6A464020FFF7EFFC6846007A401CE4
:101C1000C1B202916846007A1028F0DB00200290E1
:101C20000AE06846017A6A468020FFF7DDFC6846D4
:101C3000007A401CC1B202916846007A1028F0DB9D
:101C40000EBD00001FB5002003900190029000908F
:101C50000120FFF754F8FEF743FAFFF709F81DE0FB
:101C600000204B4908700DE0092001F02DF8FF20FD
:101C7000FFF746FD0A20FFF730F845480078401C82
:101C800043490870424800781428EDDB0220FFF732
:101C900048FE082001F018F8FFF7C2FEFFF70CF825
:101CA0000028DDD0FFF71CFF01F014F8FFF7D6F88D
:101CB000FFF7FEF83748C07A002830D000203449BA
:101CC000087012E0092000F0FFFF01210020FFF75B
:101CD000D5FD01210846FFF7D1FD1E20FEF7FDFFCF
:101CE0002B480078401C2A4908702948007814289D
:101CF000E8DB0020264908700DE0092000F0E4FF31
:101D0000FF20FFF7FDFC1E20FEF7E7FF20480078CC
:101D1000401C1F4908701E4800783228EDDB1D4921
:101D2000C87A411CCAB21B49CA72032806DBFA21D1
:101D30001848C17201201749403988731548403846
:101D4000807B012804D114490870FEF7D8FF0BE00E
:101D5000F02000F025FD0020FEF7D1FF6420FEF703
:101D6000BCFF0120FEF7CBFF00F030FB002000F0AD
:101D700017FD002009494870094988710021084869
:101D8000C17100200649891C0874FEF7A9F91FBD1E
:101D90000700002000060020050000203800002079
:101DA0009604002010B5C046C04610BDF8B50546E3
:101DB0000C46002700F0E2FF002C01D0012000E0DB
:101DC000002004465148066A2B0000F0E3FF05049A
:101DD00017394D7298004D48006840084000E107EF
:101DE000C90F08434949086000BF002C05D0474887
:101DF000C0680005C00F0028F7D082E04348006AA1
:101E00000121090788434018404908624048C068DA
:101E1000032108433E49C8603C48006802218843CA
:101E200061000222114008433849086000BF002CBD
:101E300005D0364800694006C00F0028F7D060E0A2
:101E40003248006804218843A1000422114008435D
:101E50002E49086000BF002C05D02C484069C00402
:101E6000C00F0028F7D04CE02848006A012109077C
:101E7000884340182549086225484038C068032136
:101E80008903084322494039C86020480068082176
:101E90008843E1000822114008431C49086000BF44
:101EA000002C05D0194880694006C00F0028F7D0E3
:101EB00027E01648006A01210904884340181349A5
:101EC00008621448006840084000401C114908603E
:101ED000142000F0C9FF0D4800681021884321013B
:101EE0001022114008430949086000BF002C05D0AA
:101EF0000648C06B4003C00F0028F7D001E004275C
:101F000000BF00BF014806623846F8BD002000400F
:101F1000C00D02400024004030B589B000241422D6
:101F2000564904A8FEF712F954481430006803908B
:101F3000002000900190029051480188684601817C
:101F40004F4841886846C1804D48818868468180F5
:101F50004B48C1886846418049482030018868461E
:101F60000180484800680006450F2B0000F012FF72
:101F700005042E303E4178004248C0684005400DBF
:101F800069460989884201D1089C1EE03D48C06825
:101F90004005400D6946C988884201D1079C14E07C
:101FA0003848C0684005400D69468988884201D19B
:101FB000069C0AE03348C0684005400D69464988E0
:101FC000884201D1059C00E0049C4BE02E4C49E086
:101FD000684600882B4949698905890D884202D1E4
:101FE0006846C48901E0684684893BE00124E40333
:101FF00038E02448C06B8007800F032829D1684649
:1020000000892049C9684905490D884201D1089CC9
:1020100020E06846C0881B49C9684905490D8842C7
:1020200001D1079C16E0684680881649C9684905B1
:10203000490D884201D1069C0CE068464088114950
:10204000C9684905490D884201D1059C02E0049CFC
:1020500000E00D4C0B48C06BC005000F444301E08D
:10206000002400BF00BF074800684005410F20461C
:10207000C8400446204609B030BD00005C2F000077
:10208000000C1000002000400048E80110B50024BA
:10209000FFF742FF044604480068C004810F204651
:1020A000C8400446204610BD002000401EB5014631
:1020B000002200200090019002903D48038868466D
:1020C00003813B4843886846C38039488388684613
:1020D00083803748C38868464380887803282DD199
:1020E00068460089334BDB685B055B0D984202D183
:1020F000C878022820DC6846C0882E4BDB685B0568
:102100005B0D984202D1C878022815DC68468088A9
:10211000284BDB685B055B0D984202D1C878032829
:102120000ADC68464088234BDB685B055B0D984200
:102130000CD1C878062809DD06201EBDC8781E4BC4
:1021400058431E4B984201D90620F6E71948C06B48
:1021500003235B0398430B785B030324640323404E
:102160001843144BD8631846C06B1C2398434B7814
:102170009B001C24234018430E4BD8631846C06BA9
:10218000FF23E1339843CB785B01FF24E134234004
:102190001843084BD8631846C06B800880008B78C2
:1021A0009B079B0F1843034BD8631046C5E70000FD
:1021B000000C1000002000400048E801006CDC0228
:1021C00010B501460020064AD26B0723DB039A4371
:1021D000CB030724E40323401A43014BDA6310BD09
:1021E0000020004070B504460D462A4621460248AC
:1021F000FFF767FC002070BD2020004070B504464A
:102200000025264600F0BAFD06480068E021884314
:102210007101E022114008430249086000F004F80F
:10222000284670BD00200040014802490860704700
:10223000003E49000000002010B50D49498888057E
:10224000800D0C494969890A89020143094A516193
:102250000749203909894805400D1146C968C90A4E
:10226000C9020143D160FFF7DFFF00F079FD10BD27
:10227000200C10000020004010B500F019F810BD2F
:1022800010B5C046C04610BD10B5C046C04610BD12
:1022900010B5C046C04610BD10B5C046C04610BD02
:1022A00010B5C046C04610BD10B5C046C04610BDF2
:1022B00010B500210846FEF733FC01287CD13F48C9
:1022C0004068401C3D494860052808D3002048600C
:1022D0003B48007C002802D1FF20FFF711FA374865
:1022E0000068401C354908600A283ED30020086079
:1022F0003348007C002811D13149891E8870084676
:10230000C078401CC1B22E48801EC170962915DBD2
:102310000021C17000202B4908700FE000212848DF
:10232000801EC1708078401CC0B22549891E88700B
:10233000642803DB00208870891C08742048801EF4
:10234000C07A401CC1B21E48801EC172642901DBE4
:10235000FA21C1721C48407B002803DD1A48407BEB
:10236000052802DB0121184841731548801E007BB7
:10237000401CC0B21249891E08730A280CDB0020D9
:1023800008730846407B401CC1B20D48801E417353
:10239000142901DBFA2141730948801E0079401C91
:1023A000C0B20749891E0871322801DBFA20087182
:1023B00000210846FEF7A6FB10BD000030000020FB
:1023C0009804002005000020F105002010B586B01B
:1023D0000024FFF729FF142101A800F034FD1A4C56
:1023E00001210820FFF7FEFE0021684601714172BD
:1023F0000421C17101218172002101728171417139
:1024000001A90020FEF7E4FB01200004001B81B2BB
:102410000020FEF793FB01200004001B81B2002086
:10242000FEF79CFB00210846FEF76CFB0020FEF740
:10243000C1FB012203210E20FEF764FE0020FEF7FF
:102440009DFB06B010BD00003075000010B500F017
:102450002FFA10BD10B5C046C04610BD10B50024FF
:102460000F48C07AFA2805DB00210D48C172002010
:1024700000F096F9FEF740FB00F04AF80948807832
:10248000012809D10748A230417D9F3800F00CF89F
:102490000020044988700124FDF78EFF204610BDFE
:1024A000960400203800002038B504460D46002070
:1024B000009014E068460178481CC2B26846027079
:1024C00064290CDB002101704178481CC2B26846C7
:1024D0004270642903DB00206946487003E00A4823
:1024E00000780028E6D000BF0848C572C27A2146AD
:1024F000A938FDF72BFE0020034908702946204625
:1025000000F018F838BD0000270000209A010020D4
:1025100010B50420FEF746FC052808D10420FEF77C
:102520001FFC0420FEF710FC01200149087010BDBB
:102530002700002030B58DB004460D463421684692
:1025400000F081FC01211D20FFF74CFE08940120C2
:1025500080070990001205904000079080100690B7
:10256000002108A8017201200006049000200390B9
:10257000012168468180C5800020009002902921B9
:1025800008A8017400200B90FEF7F6FB69460420B2
:10259000FEF714FC0420FEF7F9FB0DB030BD00007F
:1025A00038B504460D467848407BFA287EDB7748EC
:1025B000807800287AD10021734841737448407BA9
:1025C000002803DD7248407B052802DB01217048AA
:1025D000417300216D48A23041756E490A78014669
:1025E000487D411CCBB26949A2314B759F390A54D1
:1025F00068494A786549A231487D411CCBB263499C
:10260000A2314B759F390A5462498A785F49A231D9
:10261000487D411CCBB25D49A2314B759F390A54AC
:102620005C49CA785949A231487D411CCBB257490F
:10263000A2314B759F390A5456490A795349A23140
:10264000487D411CCBB25149A2314B759F390A5488
:1026500050494A794D49A231487D411CCBB24B4982
:10266000A2314B759F390A544D229F31487D411C40
:10267000CBB24649A2314B759F390A5411229F3182
:10268000487D411CCBB24149A2314B759F390A5458
:1026900003229F31487D411CCBB23C49A2314B758E
:1026A0009F390A543A494A7B384900E06BE0A2312D
:1026B000487D411CCBB23549A2314B759F390A5434
:1026C00002229F31487D411CCBB23049A2314B756B
:1026D0009F390A5401229F31487D411CCBB22B49BE
:1026E000A2314B759F390A549F31487D411CCAB2B3
:1026F0002649A2314A759F390C5410212648417051
:102700000020009012E069460A7823498A5C1F493C
:10271000A231487D411CCBB21C49A2314B759F3977
:102720000A5468460078401CC1B20091684600789F
:102730000A28E8DB1548A230417D184B00229F385B
:10274000FEF7FAFE01461148A23081750146897DE7
:102750000A110146487D411CCBB20C49A2314B7590
:102760009F390A549F31897D0A07120F0749A23108
:10277000487D411CCBB20549A2314B759F390A54A3
:102780000120C91E887038BD960400203800002042
:10279000F1050020882F0000AD050020962F0000D5
:1027A00010B586B00446062104A800F04CFB0121B8
:1027B0001C20FFF717FD002C56D10021684601743C
:1027C0008174C17441740175417504AA0921002006
:1027D000FEF70AFF012209210020FEF74DFF01212B
:1027E0006846017481740021C17404AA0A21002082
:1027F000FEF7FAFE01220A210020FEF73DFF10211C
:10280000684600F020FB01210020FFF7EBFC40218F
:10281000684601700021418004214170E121490294
:102820000391012149028180FFF730FC0290694643
:102830000120800700F036F900210120800700F018
:1028400005F90121880700F001F900210120800726
:1028500000F011F9012203210620FEF753FC11219B
:10286000880700F0FEF821E0F02C1FD10021684617
:10287000017481740121C174002141740175417595
:1028800004AA09210020FEF7AFFE09210020FEF76F
:1028900073FE04AA0A210020FEF7A6FE0A210020EA
:1028A000FEF76AFE00210846FFF79CFC06B010BD4B
:1028B00010B5002400210120800700F0E6F8002870
:1028C0007ED000210120800700F0C0F801208007A1
:1028D00000F032F9044658480078B42802DB0021A1
:1028E000554801705448C038007B544909788842E3
:1028F00003D051480078012836DA4F48B438407880
:102900004E494978884203D04B48007802282BDA98
:102910004948B438807849498978884203D0464884
:102920000078032820DA4448B438C0784349C9788D
:10293000884203D040480078042815DA3E48B4386D
:1029400000793E490979884203D03B480078052840
:102950000ADA3948B43840793849497988424AD046
:1029600035480078062846DB3348C038007B3449B8
:102970000978884203D030480078012838DA2E4898
:10298000B43840782E494978884203D02A480078E4
:1029900002282DDA2848B438807829498978884275
:1029A00003D025480078032822DA2348B438C078B9
:1029B0002349C978884205D01F480078042800E0E0
:1029C0002BE015DA1C48B43800791D490979884292
:1029D00003D01948007805280ADA1748B438407936
:1029E00017494979884206D013480078062802DB47
:1029F00000211148017010490878411CCAB20E49E3
:102A00000A70B4390C540C480078022802DB00200C
:102A1000FDF7E6FC00200B4908710121880700F052
:102A200034F8002806D00121880700F00FF80120B3
:102A30000549087010BD00005A0200208F2F0000C9
:102A4000882F0000960400202700002070B504465F
:102A50000D460022294620461430FFF732F80020A8
:102A600070BD70B504460D4601222946201DFFF7B2
:102A700028F8002070BD70B504460D460122294695
:102A8000201DFFF71EF8002070BD70B504460D46EE
:102A90000026294620461030FEF740FD0646304607
:102AA00070BD0000F0B585B005460C4601272149F0
:102AB00003C90491039000200290002C02D104204D
:102AC00005B0F0BD00206860608861780843A18887
:102AD00008432178084368602078402802D0207895
:102AE000C02824D1A088C117C90D0918491289002E
:102AF00003AA515A8EB2E168B1400846FDF7E1FBE6
:102B00000190A068FDF7DDFB00900199FDF79BFBAC
:102B100002903F2109060298FDF73CFB0190FDF76A
:102B2000D7FB80B2A86104212846FFF79AFF00274F
:102B30003846C5E7542F000001460868C0B2704708
:102B4000FFB59BB005460E461746002400200090B6
:102B500000BF514802782146641C02A842544E48E6
:102B600042782146641C02A842544B488278214690
:102B7000641C02A842544848C2782146641C02A83A
:102B80004254454802792146641C02A842544248F6
:102B900042792146641C02A842544D222146641CFD
:102BA000425400222046611CCCB202A90A5420469D
:102BB000611CCCB202A90E542146621CD4B202AAF6
:102BC000249850543548427B2046611CCCB202A95F
:102BD0000A54002001900CE0684600793A5C2046D7
:102BE000611CCCB202A90A5468460079401CC1B2EB
:102BF0000191684601791E988142EDDB0020019029
:102C00000DE0684601792648425C2046611CCCB242
:102C100002A90A5468460079401CC1B20191684675
:102C200000790A28EDDB0121201F02AA1154E01EC1
:102C30001154A01F6946C8731A4B0022214602A8EE
:102C4000FEF77AFC0090009800112146621CD4B275
:102C500002AA505400980207120F2046611CCCB201
:102C600002A90A54002D0AD10F484475427D9F38AD
:102C7000FDF76CFA01200C49A23988700AE00B4874
:102C80004475427D02A99F38FDF760FA012007498B
:102C9000B03908741FB0F0BD8F2F0000F10500207F
:102CA000AD050020962F0000DA0000200803002068
:102CB00010B5C046C04610BD10B5C046C04610BDD8
:102CC00010B500F02FF810BD00B5024600F022F854
:102CD00000BD000010B501220F210C48FEF7F1FEE7
:102CE0000B484068000900010B300949486008465C
:102CF0004068202188432030054948600122032193
:102D00001620FEF7FFF900F023F810BD2020004048
:102D1000800F00401E2002490860E12008607047D3
:102D2000800F004010B50548406880210840002809
:102D300003D000F005F8FEF773FE10BD800F0040D1
:102D40001E2002490860E12008607047800F0040A3
:102D50001E2002490860E12008607047800F004093
:102D60000549086A096A0122120791438918024A33
:102D70001162114608627047002000400248034972
:102D800088600348886070475A5A0000002000405D
:102D9000A5A5000030B47446641E2578641CAB42BF
:102DA00004D3635D5B00E31830BC18471D46F8E7A9
:102DB00010B5002819DB1A4A03231B02D218830816
:102DC0009B00D2588307DC0EFF23A3409A438B0756
:102DD0001B0E8407E40EA3401A43114B0324240264
:102DE0001B198408A4001A5118E00E4A03071B0F90
:102DF000083B9B089B00D2588307DC0EFF23A340AF
:102E00009A438B071B0E8407E40EA3401A43054B1D
:102E10000407240F083CA408A4001A5110BD0000A8
:102E200000E100E01CED00E002E008C8121F08C14C
:102E3000002AFAD170477047002001E001C1121F3B
:102E4000002AFBD1704710B50A460146002900D17F
:102E500010BD02E000230B70491C1346521E002BCC
:102E6000F8D100BFF4E7000070B5054611481249DB
:102E7000486100208861052008610FE000200E49AC
:102E800088610E490E480068FDF74AF901210906DC
:102E90000C1A00BF08488069A042FBD828466D1E66
:102EA0000028EBD10448006940084000024908614D
:102EB00070BD0000FFFFFF0000E000E0A086010001
:102EC0000000002010B50446206808490840012190
:102ED0004907884208D16068054908602068FDF705
:102EE000F9F803480068804710BD00000000FE2F7D
:102EF0001C000020FEF7A6FE19E00D48007800280F
:102F000011D1FEF739F8FFF705FFFEF70DFEFDF7CB
:102F1000E5F805200003FFF7D5FFFEF793FEFDF768
:102F2000DFF8FEF77DFDFFF7F5FEFFF797FAE4E720
:102F30000500002020000000170000001B0000001A
:102F400050460000E022020018000000F0000000DF
:102F5000E8030000040000000300000000093D0039
:102F600000127A000024F4004086510100366E0100
:102F7000008000964D6375436F6E666967496E66A3
:102F80006F52656164657200566973696F6E004CBB
:102F900054383930300000316253C4F5A697B988EF
:102FA000DBEA7D4C1F2E4372211087B6E5D4FACBA5
:102FB00098A93E0F5C6D86B7E4D5427320113F0E91
:102FC0005D6CFBCA99A8C5F4A796013063527C4D8D
:102FD0001E2FB889DAEB3D0C5F6EF9C89BAA84B549
:102FE000E6D7407122137E4F1C2DBA8BD8E9C7F665
:102FF000A59403326150BB8AD9E87F4E1D2C023361
:103000006051C6F7A495F8C99AAB3C0D5E6F41704C
:10301000231285B4E7D67A4B1829BE8FDCEDC3F2B4
:10302000A1900736655439085B6AFDCC9FAE80B12C
:10303000E2D344752617FCCD9EAF38095A6B457410
:10304000271681B0E3D2BF8EDDEC7B4A1928063704
:103050006455C2F3A0914776251483B2E1D0FECF28
:103060009CAD3A0B586904356657C0F1A293BD8CEC
:10307000DFEE79481B2AC1F0A392053467567849E0
:103080001A2BBC8DDEEF82B3E0D1467724153B0AC4
:103090005968FFCE9DAC0000B83000000000002051
:1030A00038000000282E0000F0300000380000201A
:1030B000E8070000382E000000093D000000120063
:1030C0000000000000000000000000000000000000
:1030D00000000000000000000000000000000001EF
:1030E00000010000010000000000000000000000DE
:04000005000000C136
:00000001FF
